S01D00004F75745F626C6F636B5F5370656353656E736F72732E737265638E
S11300009EC05AC3B7C0B6C0B5C0B4C0B3C0B2C0B6
S1130010B1C0B0C0AFC0B1C3ADC0ACC0ABC0AAC06A
S1130020A9C0A8C0A7C0EEC001C114C127C13AC16C
S11300304DC160C1B1C172C185C198C16E616E000C
S1130040696E660000407A10F35A00A0724E1809D7
S11300500010A5D4E80000E87648170000E40B542B
S1130060020000CA9A3B000000E1F50500008096FA
S11300709800000040420F000000A086010000002C
S1130080102700000000E8030000000064000000E6
S113009000000A00000000000100000000002C76AF
S11300A0D888DC674F0823DFC1DFAE59E1B1B796CA
S11300B0E5E3E453C63AE651997696E8E6C2842627
S11300C0EB898C9B62ED407C6FFCEFBC9C9F40F203
S11300D0BAA56FA5F490055A2AF75C936B6CF9677F
S11300E06DC11BFCE0E40D47FEF520E6B500D0ED44
S11300F0902E0300943577050080841E08000020AC
S11301004E0A000000C80C333333330F986E128349
S11301101141EF8D2114893BE65516CFFEE6DB181D
S1130120D1844B381BF77C1D901DA4BBE4242032E2
S113013084725E228100C9F124ECA1E53D271124DB
S11301401FBECFE5D4E0DEBFCDBF10E0A0E6B0E037
S1130150E2ECF6E102C005900D92A43CB107D9F798
S113016022E0A4ECB0E001C01D92A339B207E1F78C
S113017042D2A5CA45CFFC0161E070E003C071958D
S113018061957109DF0191919D32C9F39B32D1F3DD
S113019080ED890F8A30D8F4FD01319620E030E0FB
S11301A0A901440F551F220F331F220F331F220FA3
S11301B0331F420F531F292F30E020533109240FDE
S11301C0351F919180ED890F8A3050F302C020E0F1
S11301D030E0269FC001279F900D369F900D11247B
S11301E0089566E870E084D9009709F4EBC0E091C3
S11301F0D800F091D900EB30F10508F0CDC0ED5EE8
S1130200FF4F0994909375008093740066E870E042
S113021080E090E06DD92091D8003091D9002F5F13
S11302203F4F3093D9002093D800C9C090937300F6
S11302308093720066E870E080E090E059D92091E4
S1130240D8003091D9002F5F3F4F3093D9002093CD
S1130250D800B5C0909371008093700066E870E098
S113026080E090E045D92091D8003091D9002F5FEB
S11302703F4F3093D9002093D800A1C090936F00D2
S113028080936E0066E870E080E090E031D92091C0
S1130290D8003091D9002F5F3F4F3093D90020937D
S11302A0D8008DC090936D0080936C0066E870E078
S11302B080E090E01DD92091D8003091D9002F5FC3
S11302C03F4F3093D9002093D80079C090936B00AE
S11302D080936A0066E870E080E090E009D920919C
S11302E0D8003091D9002F5F3F4F3093D90020932D
S11302F0D80065C0909369008093680066E870E058
S113030080E090E0F5D82091D8003091D9002F5F9B
S11303103F4F3093D9002093D80051C09093670089
S11303208093660066E870E080E090E0E1D8209178
S1130330D8003091D9002F5F3F4F3093D9002093DC
S1130340D8003DC0909365008093640066E870E037
S113035080E090E0CDD82091D8003091D9002F5F73
S11303603F4F3093D9002093D80029C09093630065
S113037080936200FC01128266E870E080E090E005
S1130380B7D82091D8003091D9002F5F3F4F3093D8
S1130390D9002093D80013C090936100809360002B
S11303A066E870E080E090E0A3D82091D800309116
S11303B0D9002F5F3F4F3093D9002093D800009786
S11303C009F015CF1092D9001092D80008952F92F9
S11303D03F924F925F926F927F928F929F92AF92D1
S11303E0BF92CF92DF92EF92FF921F93CF93DF934E
S11303F000D01F92CDB7DEB780E220D1A3D1909375
S1130400770080937600EDDE809172009091730006
S11304109B838A83DC018C918D3229F41092CB006A
S11304201092CA0007C08A819B81A5DE9093CB00FD
S11304308093CA00E0906C00F0906D00F701808119
S1130440811105C01092C7001092C60006C0C701F2
S113045092DE9093C7008093C600109170002090A4
S11304607100812F922D44D76C019093C900809321
S1130470C8006091CA007091CB0080E090E0B3D2D4
S113048028E036EF40E458E33CD34B015C01B6016D
S113049080E090E0A8D223E333E948E853E4D7D1DD
S11304A024E138E045E051E42CD320E836EE45EC75
S11304B057E431D29B01AC01C501B4012CD269834C
S11304C0D72EC82E792E862F9D2DAC2DB72D809337
S11304D0D4009093D500A093D600B093D700609138
S11304E0C6007091C70080E090E07DD22AEE3AED1C
S11304F041EA50EC06D320E030E04AE754E40BD262
S11305004B015C0120E531ED45E253E4A0D1662EB8
S1130510572E482E392E862F952DA42DB32D80933A
S1130520D0009093D100A093D200B093D30028E5DB
S11305303EEC44E253E4C501B40189D1A62FB72FA0
S1130540462F572F682F792F4093CC005093CD001E
S11305506093CE007093CF00E0916600F091670045
S11305602081222399F1FF92EF9220916F002F9323
S113057020916E002F932F921F939F938F93BF937D
S1130580AF933F924F925F926F928B818F939A8138
S11305909F937F92CF92DF92A981AF938091630062
S11305A08F93809162008F93809165008F938091E7
S11305B064008F93FF93EF9389E890E09F938F9368
S11305C00DD80FB6F894DEBF0FBECDBF0F900F90BD
S11305D00F90DF91CF911F91FF90EF90DF90CF901C
S11305E0BF90AF909F908F907F906F905F904F904F
S11305F03F902F90089515D10CD07894E8DE2FEF1A
S113060083ED90E3215080409040E1F700C000006A
S1130610F5CF8B9A939A8A988BB780648BBF85B7F2
S1130620826085BF0895811101C093988FE991E09C
S11306300197F1F700C00000939A0895EF92FF929A
S1130640CF93DF93E82E80E0EEDFC0E0D0E0F12C22
S113065097010C2E02C0359527950A94E2F720FFE6
S113066003C081E0E0DF02C080E0DDDF2196C83016
S1130670D10571F781E0D7DFDF91CF91FF90EF9043
S1130680089520E030E080E061E070E0EFE9F1E01F
S11306903197F1F700C00000829B08C0AB01022E25
S11306A002C0440F551F0A94E2F7842B2F5F3F4F7B
S11306B02830310559F708951F920F920FB60F9203
S11306C011242F933F934F935F936F937F938F9353
S11306D09F93AF93BF93EF93FF938BB78F7B8BBFA6
S11306E085B78D7F85BF8FEC90E00197F1F700C04F
S11306F00000829910C0C5DF9091DA00E92FF0E084
S1130700EB53FE4F80839F5F993C18F49093DA007B
S113071002C01092DA008BB780648BBF85B7826009
S113072085BFFF91EF91BF91AF919F918F917F9181
S11307306F915F914F913F912F910F900FBE0F904A
S11307401F90189588ECE5ECF1E0ADEFB0E0019076
S11307500D928A95E1F71092DA008DEF90E00895FA
S1130760CF93C82F8A3011F48DE0FADF5D9BFECF62
S1130770CCB980E090E0CF9108951F920F920FB60C
S11307800F9211242F933F934F935F936F937F9313
S11307908F939F93AF93BF93EF93FF939CB1E0919B
S11307A0DB00F0E0E352FF4F90838091DB008F5F2A
S11307B08093DB009A3221F08091DB00803290F04C
S11307C01092DB0081E08093DC008DED90E09F933C
S11307D08F9381EC90E09F938F9300D70F900F90AD
S11307E00F900F90FF91EF91BF91AF919F918F91D7
S11307F07F916F915F914F913F912F910F900FBE19
S11308000F901F901895C59A880F815000E020E240
S113081098B3922798BB91E0900F092F9817C0F3D3
S1130820089587E689B988E98AB986E880BDBD9AC2
S113083083E0E9DF1092DB001092DC00789488E713
S113084090E09093900280938F0208955058BB27B4
S1130850AA270ED01CC10DD130F012D120F031F4F2
S11308609F3F11F41EF402C10EF4E095E7FBF8C0BB
S1130870E92F1ED180F3BA1762077307840795071F
S113088018F071F49EF536C10EF4E0950B2EBA2FD4
S1130890A02D0B01B90190010C01CA01A001112482
S11308A0FF27591B99F0593F50F4503E68F11A162E
S11308B0F040A22F232F342F4427585FF3CF4695BF
S11308C037952795A795F0405395C9F77EF41F16E1
S11308D0BA0B620B730B840BBAF09150A1F0FF0FAB
S11308E0BB1F661F771F881FC2F70EC0BA0F621F97
S11308F0731F841F48F4879577956795B795F79587
S11309009E3F08F0B3CF9395880F08F09927EE0F18
S11309109795879508950CD0BAC0B2D040F0A9D06D
S113092030F021F45F3F19F09BC05111E4C09EC028
S1130930BFD098F39923C9F35523B1F3951B550BF5
S1130940BB27AA2762177307840738F09F5F5F4F9E
S1130950220F331F441FAA1FA9F333D00E2E3AF0DF
S1130960E0E830D091505040E695001CCAF729D0F9
S1130970FE2F27D0660F771F881FBB1F2617370748
S11309804807AB07B0E809F0BB0B802DBF01FF2778
S113099093585F4F2AF09E3F510568F061C0ABC089
S11309A05F3FECF3983EDCF3869577956795B795B2
S11309B0F7959F5FC9F7880F911D9695879597F9CD
S11309C00895E1E0660F771F881FBB1F6217730746
S11309D08407BA0720F0621B730B840BBA0BEE1F5B
S11309E088F7E0950895E89409C097FB3EF4909544
S11309F08095709561957F4F8F4F9F4F9923A9F0F4
S1130A00F92F96E9BB279395F69587957795679582
S1130A10B795F111F8CFFAF4BB0F11F460FF1BC0C6
S1130A206F5F7F4F8F4F9F4F16C0882311F096E959
S1130A3011C0772321F09EE8872F762F05C0662307
S1130A4071F096E8862F70E060E02AF09A95660FC0
S1130A50771F881FDAF7880F9695879597F9089579
S1130A6097F99F6780E870E060E008959FEF80EC5D
S1130A70089500240A941616170618060906089500
S1130A8000240A9412161306140605060895092E66
S1130A900394000C11F4882352F0BB0F40F4BF2BD5
S1130AA011F460FF04C06F5F7F4F8F4F9F4F089515
S1130AB057FD9058440F551F59F05F3F71F047950B
S1130AC0880F97FB991F61F09F3F79F087950895F0
S1130AD0121613061406551FF2CF4695F1DF08C00F
S1130AE0161617061806991FF1CF8695710561052C
S1130AF008940895E894BB2766277727CB0197F9D4
S1130B0008950BD0C4CFB5DF28F0BADF18F09523D1
S1130B1009F0A6CFABCF1124EECFCADFA0F3959F87
S1130B20D1F3950F50E0551F629FF001729FBB27D0
S1130B30F00DB11D639FAA27F00DB11DAA1F649F7C
S1130B406627B00DA11D661F829F2227B00DA11D2F
S1130B50621F739FB00DA11D621F839FA00D611DB5
S1130B60221F749F3327A00D611D231F849F600DD6
S1130B70211D822F762F6A2F11249F5750408AF00F
S1130B80E1F088234AF0EE0FFF1FBB1F661F771F9B
S1130B90881F91505040A9F79E3F510570F060CFD7
S1130BA0AACF5F3FECF3983EDCF386957795679583
S1130BB0B795F795E7959F5FC1F7FE2B880F911DB9
S1130BC09695879597F90895A3E1B0E0E9EEF5E0ED
S1130BD058C36C014B012A01FC01178216828381E0
S1130BE081FF29C3AE014F5F5F4F3A01F601938144
S1130BF0F40193FD859193FF81914F01882309F4BA
S1130C0016C3853239F493FD859193FF81914F0189
S1130C10853231F4B60190E0A9D452012501E6CF22
S1130C2010E0F12C20E02032A0F48B3269F030F493
S1130C30803259F0833269F420612CC08D3239F04E
S1130C40803339F4216026C02260246023C02860E8
S1130C5021C027FD27C030ED380F3A3078F426FF45
S1130C6006C0FAE01F9F300D1124132F13C04AE071
S1130C70F49E300D1124F32E20620CC08E3221F428
S1130C8026FDD5C2206406C08C3611F4206802C04B
S1130C90883641F4F40193FD859193FF81914F01CE
S1130CA08111C1CF9BEB980F933018F42061805EC3
S1130CB006C09BE9980F933008F064C12F7E26FF8D
S1130CC016E02F73322E853619F42064322E08C0B4
S1130CD0863621F4F22FF0683F2E02C01111115014
S1130CE037FE07C01C3350F4EE24E394E10E27E0F2
S1130CF00BC0183038F027E017E005C027E04CE3BC
S1130D00E42E02C0212FE12C520144E0A40EB11CB8
S1130D10F20160817181828193810E2DA30105D33B
S1130D202C01098100FF02C003FF07C031FC08C089
S1130D3032FE09C030E2232E07C02DE2222E04C069
S1130D409BE2292E01C0212C802F8C7019F02110D8
S1130D5051C28DC237FE0FC0E40C04FF04C08A8167
S1130D60813309F4EA941E1474F5F8E0FE1578F55D
S1130D7088E0E82E2CC036FC2AC0812F90E0841530
S1130D8095059CF02CEF42162FEF520674F0432D7C
S1130D904068342E0AC0E2E0F0E0EC0FFD1FE10FE2
S1130DA0F11D8081803319F411501111F4CF37FEF5
S1130DB00EC0EE24E394E10E812F90E0481659060C
S1130DC02CF4141904C0EE24E39401C010E037FE9F
S1130DD006C01414150434F4C201019605C085E05C
S1130DE090E002C081E090E021100196112331F0DF
S1130DF0212F30E02F5F3F4F820F931F2F2D30E0C4
S1130E008217930714F4F81A01C0F12C832D89700A
S1130E1041F4FF2031F0B60180E290E0A7D3FA94C8
S1130E20F8CF222021F0B601822D90E09FD333FC2D
S1130E3008C0FF2031F0B60180E390E097D3FA9424
S1130E40F8CF37FE58C0942D852D57FE02C090E090
S1130E5080E0292E382E20E030E0A2014E195109FD
S1130E605D874C87A201421953095F874E87612F22
S1130E7070E044275527461B570B598B488B5FEF6F
S1130E802516350641F4B6018EE290E02A8B3B8BA1
S1130E906DD33B892A89421453046CF04C855D85DB
S1130EA04215530544F4EE85FF85E20FF31FE60D6A
S1130EB0F71D818101C080E351E0251A31082F5FBD
S1130EC03F4F488959892416350644F0B60190E00D
S1130ED02A8B3B8B4BD32A893B89D1CF24143504ED
S1130EE039F49A81963318F4953311F404FF81E3AD
S1130EF0B60190E045C08A81813309F00F7EB601C6
S1130F0090E034D3111105C034FC16C085E690E09E
S1130F1015C0B6018EE290E029D382E0EE24E3947A
S1130F20E80EF301E80FF11D8081B60190E01ED3B5
S1130F3011508E2D99F7E8CF85E490E0B60116D3D1
S1130F4057FC05C04114510439F404FF05C0519401
S1130F50419451088DE201C08BE2B60190E006D3C2
S1130F6080E39AE0491651042CF08F5F5AE0451A49
S1130F705108F7CFB60190E0F9D2B601C201C0968C
S1130F80F5D24CC1833631F0833779F0833509F0DB
S1130F9054C020C05201E2E0AE0EB11CF2018081C7
S1130FA0898301E010E0230113C05201F2E0AF0E87
S1130FB0B11CF2014080518026FF03C0612F70E014
S1130FC002C06FEF7FEFC2012A8B96D28C012A896F
S1130FD02F7714C05201F2E0AF0EB11CF201408031
S1130FE0518026FF03C0612F70E002C06FEF7FEFD6
S1130FF0C2012A8B72D28C012A892068322E23FDE9
S113100018C08F2D90E00817190798F4B60180E2F4
S113101090E0ACD2FA94F5CFF20137FC859137FE1B
S113102081912F01B60190E0A1D2F110FA94015000
S113103011090115110581F7F1C0843611F08936C3
S113104051F5520127FF09C0F4E0AF0EB11CF201C3
S113105060817181828193810AC0F2E0AF0EB11C7C
S1131060F20160817181072E000C880B990B2F7699
S1131070322E97FF09C090958095709561957F4FAA
S11310808F4F9F4F2068322E2AE030E0A301B9D25F
S1131090E82EE6183EC0022F853721F40F7E2AE0A1
S11310A030E01DC0097F8F3691F018F4883559F06F
S11310B0BEC0803719F0883711F0B9C0006104FF51
S11310C009C0046007C024FF08C0066006C028E009
S11310D030E005C020E130E002C020E132E05201FE
S11310E007FF09C0F4E0AF0EB11CF2016081718109
S11310F08281938108C0F2E0AF0EB11CF2016081DD
S1131100718180E090E0A3017CD2E82EE6180F778D
S1131110302E36FE0BC0332D3E7FE11650F434FEE4
S11311200AC032FC08C0332D3E7E05C00E2D332D7F
S113113003C00E2D01C0012F34FF0CC0FE01EE0DC3
S1131140F11D8081803311F4397E08C032FF05C05F
S11311500E5F04C0832F867809F00F5F33FD12C041
S113116030FF06C01E2D0F1518F41F0D101B0F2D78
S11311700F1560F4B60180E290E03B8BF7D10F5F6E
S11311803B89F6CF0F1510F4F01A01C0F12C34FF8F
S113119011C0B60180E390E03B8BE8D13B8932FF7C
S11311A016C031FD03C088E790E002C088E590E0F6
S11311B0B6010CC0832F867851F031FF02C08BE258
S11311C001C080E237FD8DE2B60190E0CFD1E11697
S11311D030F4B60180E390E0C9D11150F8CFEA941D
S11311E0F301EE0DF11D8081B60190E0BFD1E11055
S11311F0F6CF14C0F4E0FF1548F584E0F81A33FE86
S11312001DC0211024C003FF27C00CE310E0F32D00
S1131210F0713F2EF8018491811121C0FF2009F45F
S1131220FDCCB60180E290E0A1D1FA94F7CFF601AB
S11312308681978123C08FEF9FEF20C0B60180E2A3
S113124090E094D1FA94F110F9CFDBCFF12CB601F0
S1131250822D90E08BD1D7CF00E410E0D8CF3110AD
S11312608052B60190E082D10F5F1F4FD3CF23E0AD
S11312702F1510F483E0C2CFF12CC5CF6396E2E1C1
S11312801CC02F923F924F925F926F927F928F92E7
S11312909F92AF92BF92CF92DF92EF92FF920F9301
S11312A01F93CF93DF93CDB7DEB7CA1BDB0B0FB60B
S11312B0F894DEBF0FBECDBF09942A8839884888C8
S11312C05F846E847D848C849B84AA84B984C8845E
S11312D0DF80EE80FD800C811B81AA81B981CE0F55
S11312E0D11D0FB6F894DEBF0FBECDBFED0108953A
S11312F0FC0188279927E89421912032E9F32930C9
S113130010F02E30C8F32B3239F02D3231F46894BA
S113131003C024D1820F911D219120532A30C8F398
S11313201EF4909581959F4F0895283008F027E08A
S11313303327DA01990F311D87FD9160009661050D
S1131340710539F432602E5F3D9330E32A95E1F75D
S113135008959F3F30F080387105610509F03C5FC6
S11313603C5F3D93913008F08068911DDF93CF93EB
S11313701F930F93FF92EF92192F987F9695E92F61
S113138096959695E90FFF27E256FF4F9927332745
S1131390EE24FF24A701E70105900894079428F49C
S11313A0360FE71EF81E491F511D660F771F881F51
S11313B0991F0694A1F70590079428F4E70EF81EE8
S11313C0491F561FC11D770F881F991F661F06945A
S11313D0A1F70590079428F4F80E491F561FC71F5C
S11313E0D11D880F991F661F771F0694A1F70590DA
S11313F0079420F4490F561FC71FD81F990F661F63
S1131400771F881F0694A9F784911095177041F0EF
S1131410D695C79557954795F794E7941A95C1F7CC
S1131420E4E4F0E0689415901591359165919591F7
S113143005907FE27395E118F10A430B560BC90B33
S1131440D009C0F7E10CF11E431F561FC91FD01D60
S11314507EF4703311F48A95E6CFE894015030F0AD
S1131460080F0AF40027021708F4202F2395022FEF
S11314707A3328F079E37D932A95E9F710C07D93B8
S11314802A9589F606949795679537951795179435
S1131490E118F10A430B560BC90BD00998F02395B8
S11314A07E9173957A3308F070E37C932013B8F738
S11314B07E9170617D9330F0839571E37D9370E349
S11314C02A95E1F71124EF90FF900F911F91CF918E
S11314D0DF91992787FD90950895FC01059061504F
S11314E070400110D8F7809590958E0F9F1F089536
S11314F044EC50E00CD00895FC0161507040019020
S11315000110D8F7809590958E0F9F1F0895FA01CA
S1131510A191B081009719F41097E1F0CD01DC019D
S1131520CD010D90002011F4C00113C0FB012191E5
S1131530222319F02015D9F7F3CFFB0121912015AF
S113154019F41E92119606C02223C1F70D900020B3
S1131550A1F7D001FA01A193B08308957AE0979F8F
S1131560902D879F802D910D112408950F931F9323
S1131570CF93DF93FB01238121FD03C08FEF9FEF06
S113158028C022FF16C04681578124813581421725
S1131590530744F4A081B1819D012F5F3F4F3183F4
S11315A020838C93268137812F5F3F4F3783268397
S11315B010C0EB01092F182F0084F185E02D099547
S11315C0892BE1F68E819F8101969F838E83812FE3
S11315D0902FDF91CF911F910F910895A0E0B0E07B
S11315E0E3EFFAE05ECEAE014B5F5F4FFA0161912B
S11315F07191AF0180918F0290919002E5DAE2E05F
S11316006CCEFA01AA27283051F1203181F1E894F7
S11316106F936E7F6E5F7F4F8F4F9F4FAF4FB1E0E1
S11316203ED0B4E03CD0670F781F891F9A1FA11DDC
S1131630680F791F8A1F911DA11D6A0F711D811DDD
S1131640911DA11D20D009F468943F912AE0269FA2
S113165011243019305D3193DEF6CF010895462F01
S11316604770405D4193B3E00FD0C9F7F6CF462FE2
S11316704F70405D4A3318F0495D31FD405241934B
S113168002D0A9F7EACFB4E0A69597958795779508
S11316906795BA95C9F700976105710508959B018F
S11316A0AC010A2E06945795479537952795BA9518
S11316B0C9F7620F731F841F951FA01D0895F89426
S10516C0FFCF56
S11316C2BC00BC00BC00BC00BC00BC00BC00BC0034
S11316D2BC00BC00BC00BC00000000020000000012
S11316E2B00300000000202C0025733A25733A252C
S11316F273200920252E3466200920257320092011
S1131702252E3466200920252E34662009202573CF
S113171220092025732009202573200A004E4F3208
S10717220025730027
S9030000FC
